:100000000C942A000C9447000C9447000C94470071
:100010000C9447000C9447000C9447000C94470044
:100020000C9447000C9447000C9447000C94470034
:100030000C9447000C9447000C9447000C94470024
:100040000C9447000C9447000C9447000C94470014
:100050000C94470011241FBECFE5D8E0DEBFCDBF12
:1000600011E0A0E6B0E0E8E3F6E302C005900D92EF
:10007000AA34B107D9F711E0AAE4B1E001C01D929A
:10008000A235B107E1F70E94CA1A0C941A1B0C940E
:100090000000EF92FF920F931F937B018C0120E0F1
:1000A00030E040E05FE40E94490388238CF0C801FF
:1000B000B70120E030E040E05FE40E94C1010E940F
:1000C000A9039B01AC01205030404040504806C07D
:1000D000C801B7010E94A9039B01AC01B901CA0183
:1000E0001F910F91FF90EF900895A0E0B0E0EBE733
:1000F000F0E00C94E31ADC012B01FA019C919230A0
:1001000008F439C1EB018881823008F433C194309E
:1001100069F4843009F02FC111969C91119789815F
:10012000981709F428C1A3EFB0E025C1843009F481
:1001300021C18230A9F4923009F01DC19A01AD01AC
:1001400088E0EA010990AE01E90109929E0181501F
:10015000C1F7E201898111969C918923818308C1AD
:10016000923009F407C112962D903C901397EB0141
:100170008A819B811496AD90BD90CD90DC901797AD
:10018000EC80FD800E811F819101281B390BB90184
:1001900037FF04C066277727621B730B6032710537
:1001A0000CF061C0121613066CF537014801062EDB
:1001B00004C096948794779467940A94D2F721E0C8
:1001C00030E040E050E004C0220F331F441F551FB1
:1001D0006A95D2F721503040404050402E213F21B7
:1001E00040235123211531054105510521F021E01E
:1001F00030E040E050E079018A01E628F72808293C
:1002000019293CC0232BD1F1260E371E350146019A
:10021000062E04C096948794779467940A94D2F734
:1002200021E030E040E050E004C0220F331F441FC3
:10023000551F6A95D2F721503040404050402A2146
:100240003B214C215D21211531054105510521F04E
:1002500021E030E040E050E059016A01A628B728CB
:10026000C828D9280BC0821593052CF01C01AA249C
:10027000BB24650103C0EE24FF24870111969C91E5
:10028000D20111968C91981709F445C0992339F041
:10029000A80197012A193B094C095D0906C0A6016E
:1002A00095012E193F09400B510B57FD08C01182D3
:1002B0003382228224833583468357831DC081E0A5
:1002C00081833382228288279927DC01821B930B4A
:1002D000A40BB50B84839583A683B7830DC0220F2F
:1002E000331F441F551F24833583468357838281E0
:1002F000938101979383828324813581468157813D
:10030000DA01C9010197A109B1098F5F9F4FAF4F72
:10031000BF4328F30BC0918333822282EA0CFB1C7B
:100320000C1D1D1DE482F5820683178383E0808304
:10033000248135814681578157FF1AC0C901AA27F8
:1003400097FDA095BA2F81709070A070B0705695EF
:10035000479537952795822B932BA42BB52B848318
:100360009583A683B7838281938101969383828349
:10037000DF0101C0D201CD01CDB7DEB7E2E10C94BF
:10038000FF1AA0E2B0E0E7ECF1E00C94EF1A698309
:100390007A838B839C832D833E834F835887E9E048
:1003A000EE2EF12CEC0EFD1ECE010196B7010E943F
:1003B000D2048E010F5E1F4FCE010596B8010E9438
:1003C000D2048A8991E089278A8BC701B801AE01DE
:1003D000475E5F4F0E9475000E94FD03A096E6E015
:1003E0000C940B1BA0E2B0E0E8EFF1E00C94EF1AE4
:1003F00069837A838B839C832D833E834F835887C5
:10040000F9E0EF2EF12CEC0EFD1ECE010196B701A6
:100410000E94D2048E010F5E1F4FCE010596B801D7
:100420000E94D204C701B801AE01475E5F4F0E942F
:1004300075000E94FD03A096E6E00C940B1BA0E261
:10044000B0E0E5E2F2E00C94E31A69837A838B83EF
:100450009C832D833E834F835887CE010196BE0136
:10046000675F7F4F0E94D204CE010596BE016F5E8A
:100470007F4F0E94D2049985923088F0898982301A
:10048000C8F0943019F4823051F404C0843029F457
:10049000923081F483EF90E0C6C0923049F420E0BE
:1004A0009A858A89981321E02A87CE010996BBC0D4
:1004B000823049F420E09A858A89981321E02A8BBA
:1004C000CE014196B0C02D843E844F8458886D88FB
:1004D0007E888F88988CEE24FF248701AA24BB2471
:1004E000650140E050E060E070E0E0E0F0E0C10174
:1004F00081709070892BE9F0E60CF71C081D191D1E
:100500009A01AB012A0D3B1D4C1D5D1D80E090E062
:10051000A0E0B0E0E614F7040805190520F481E036
:1005200090E0A0E0B0E0BA01A901480F591F6A1F8E
:100530007B1FAA0CBB1CCC1CDD1C97FE08C081E0F5
:1005400090E0A0E0B0E0A82AB92ACA2ADB2A3196B6
:10055000E032F10549F0660C771C881C991C569412
:10056000479437942794C3CFFA85EA892B893C892D
:100570008B859C85280F391F2E5F3F4F17C0CA01FE
:1005800081709070892B61F016950795F794E79428
:1005900080E090E0A0E0B0E8E82AF92A0A2B1B2BC3
:1005A00076956795579547952F5F3F4F77FDE7CF36
:1005B0000CC0440F551F661F771F17FD4160EE0CDE
:1005C000FF1C001F111F21503040403090E05907A0
:1005D00090E0690790E4790760F32B8F3C8FDB0193
:1005E000CA018F779070A070B07080349105A1051A
:1005F000B10561F447FD0AC0E114F10401051105DC
:1006000029F0405C5F4F6F4F7F4F40781A8EFE1786
:1006100011F081E08A8F4D8F5E8F6F8F78A383E01A
:10062000898FCE0149960E94FD03A096E2E10C94C9
:10063000FF1AA8E1B0E0EFE1F3E00C94EF1A698350
:100640007A838B839C832D833E834F83588789E0F5
:10065000E82EF12CEC0EFD1ECE010196B7010E9492
:10066000D2048E010F5E1F4FCE010596B8010E9485
:10067000D2048985823040F08989823028F0C70110
:10068000B8010E944A0501C08FEF6896E6E00C941D
:100690000B1BA8E1B0E0EFE4F3E00C94EF1A6983E0
:1006A0007A838B839C832D833E834F83588789E095
:1006B000E82EF12CEC0EFD1ECE010196B7010E9432
:1006C000D2048E010F5E1F4FCE010596B8010E9425
:1006D000D2048985823040F08989823028F0C701B0
:1006E000B8010E944A0501C08FEF6896E6E00C94BD
:1006F0000B1BA8E1B0E0EFE7F3E00C94EF1A69837D
:100700007A838B839C832D833E834F83588789E034
:10071000E82EF12CEC0EFD1ECE010196B7010E94D1
:10072000D2048E010F5E1F4FCE010596B8010E94C4
:10073000D2048985823040F08989823028F0C7014F
:10074000B8010E944A0501C081E06896E6E00C9479
:100750000B1BACE0B0E0EFEAF3E00C94F31A698312
:100760007A838B839C83CE010196BE016B5F7F4FA2
:100770000E94D2048D81823061F1823050F1843048
:1007800021F48E81882351F12EC02F81388537FDC9
:1007900020C06E812F3131051CF06623F9F023C093
:1007A0008EE190E0821B930B29853A854B855C8511
:1007B00004C056954795379527958A95D2F76623B5
:1007C000B1F050954095309521953F4F4F4F5F4F79
:1007D0000EC020E030E040E050E009C02FEF3FEFD6
:1007E0004FEF5FE704C020E030E040E050E8B9019F
:1007F000CA012C96E2E00C940F1BDF92EF92FF925D
:100800000F931F93FC01E480F58006811781D1804E
:100810008081823048F480E090E0A0E1B0E0E82AF6
:10082000F92A0A2B1B2BA5C0843009F49FC0823003
:1008300021F4EE24FF24870105C0E114F104010531
:10084000110519F4E0E0F0E096C0628173819FEF3A
:10085000623879070CF05BC022E83FEF261B370BAC
:100860002A3131052CF020E030E040E050E02AC091
:10087000B801A701022E04C0769567955795479554
:100880000A94D2F781E090E0A0E0B0E004C0880FC5
:10089000991FAA1FBB1F2A95D2F70197A109B10979
:1008A0008E219F21A023B1230097A105B10521F03E
:1008B00081E090E0A0E0B0E09A01AB01282B392B59
:1008C0004A2B5B2BDA01C9018F779070A070B07052
:1008D00080349105A105B10539F427FF09C0205CDA
:1008E0003F4F4F4F5F4F04C0215C3F4F4F4F5F4F13
:1008F000E0E0F0E02030A0E03A07A0E04A07A0E402
:100900005A0710F0E1E0F0E079018A0127C0603871
:10091000710564F5FB01E158FF4FD801C7018F77DE
:100920009070A070B07080349105A105B10539F4C4
:10093000E7FE0DC080E490E0A0E0B0E004C08FE3EB
:1009400090E0A0E0B0E0E80EF91E0A1F1B1F17FFA1
:1009500005C016950795F794E794319687E01695AC
:100960000795F794E7948A95D1F705C0EE24FF2404
:100970008701EFEFF0E06E2F679566276795902F60
:100980009F77D794DD24D7948E2F8695492F462BB9
:10099000582F5D29B701CA011F910F91FF90EF9069
:1009A000DF900895FC01DB01408151812281622F9B
:1009B0006F7770E0221F2227221F9381892F880FD3
:1009C000822B282F30E0991F9927991F11969C930D
:1009D000119721153105A9F54115510561057105DD
:1009E00011F482E037C082E89FEF13969C938E93B8
:1009F00012979A01AB0167E0220F331F441F551F66
:100A00006A95D1F783E08C930DC0220F331F441FEA
:100A1000551F12968D919C911397019713969C9355
:100A20008E931297203080E0380780E0480780E4FA
:100A3000580758F314962D933D934D935C93179755
:100A400008952F3F310579F4411551056105710570
:100A500019F484E08C93089564FF03C081E08C93C3
:100A600012C01C9210C02F57304013963C932E9307
:100A7000129783E08C9387E0440F551F661F771F02
:100A80008A95D1F7706414964D935D936D937C9322
:100A9000179708951F93DC01FB019C91923008F495
:100AA00047C08081823008F443C0943051F41196DD
:100AB0001C91843099F58181682F70E0611B710968
:100AC0003FC0843021F0923031F48230B9F181811D
:100AD000882389F12DC011961C9111978230F1F075
:100AE00081811817D9F412962D913C911397828128
:100AF00093818217930794F028173907BCF0149656
:100B00008D919D910D90BC91A02D248135814681C0
:100B10005781281739074A075B0718F4112341F05A
:100B20000AC082179307A407B50740F4112319F0F0
:100B300061E070E005C06FEF7FEF02C060E070E041
:100B4000CB011F910895DF93CF93CDB7DEB7A69762
:100B50000FB6F894DEBF0FBECDBF81E08D8F8091C0
:100B60004A01282F30E03EA32DA38DA19EA1833002
:100B7000910509F467C12DA13EA1243031058CF403
:100B80008DA19EA18130910509F4C6C02DA13EA181
:100B9000223031050CF04DC18DA19EA10097A1F02E
:100BA000DAC12DA13EA12530310509F4ADC18DA1D9
:100BB0009EA1853091050CF46EC12DA13EA1263079
:100BC000310509F4AAC1C7C181E00E94F9160E944B
:100BD000B4070E944B0E8CA30E9424090E944B0E66
:100BE0008BA381E00E94F9168CA16BA10E94AF0F2C
:100BF0000E942B1A8F8F80E090E0A8E4B3E4898FE5
:100C00009A8FAB8FBC8F698D7A8D8B8D9C8D20E0F8
:100C100030E04AE755E40E941F02DC01CB018D8BD6
:100C20009E8BAF8BB88F6D897E898F89988D20E0E0
:100C300030E040E85FE30E94790388232CF481E0F0
:100C400090E09C8B8B8B3FC06D897E898F89988DBE
:100C500020E03FEF4FE757E40E94190318164CF5C8
:100C6000698D7A8D8B8D9C8D20E030E040E251E4DF
:100C70000E941F02DC01CB01BC01CD010E94490092
:100C8000DC01CB019C8B8B8B0FC080E991E09A8BB0
:100C9000898B89899A890197F1F79A8B898B8B893E
:100CA0009C8901979C8B8B8B8B899C89009769F71A
:100CB00014C06D897E898F89988D0E944900DC015E
:100CC000CB019C8B8B8B8B899C89988B8F878F8595
:100CD00098890197F1F7988B8F878F8D833431F442
:100CE00081E00E94F91610924A0135C18F8D82353C
:100CF00031F40E94120F83E080934A012CC18F8D42
:100D00008C3431F40E94120F82E080934A0123C197
:100D100081E080934A011FC181E00E94F9160E9480
:100D20008D0A0E942B1A8F8F80E090E0A8E4B3E434
:100D30008B879C87AD87BE876B857C858D859E85DF
:100D400020E030E04AE755E40E941F02DC01CB01BD
:100D50008F839887A987BA876F81788589859A85D7
:100D600020E030E040E85FE30E94790388232CF420
:100D700081E090E09E838D833FC06F817885898577
:100D80009A8520E03FEF4FE757E40E9419031816B9
:100D90004CF56B857C858D859E8520E030E040E2BA
:100DA00051E40E941F02DC01CB01BC01CD010E9475
:100DB0004900DC01CB019E838D830FC080E991E067
:100DC0009C838B838B819C810197F1F79C838B8320
:100DD0008D819E8101979E838D838D819E81009759
:100DE00069F714C06F81788589859A850E944900CA
:100DF000DC01CB019E838D838D819E819A838983C3
:100E000089819A810197F1F79A8389838F8D823541
:100E100031F40E94120F83E080934A019CC08F8DB1
:100E20008C3409F098C00E94120F82E080934A012E
:100E300092C081E00E94F9160E94910B84E0809399
:100E40004A0189C081E00E94F9160E943B0C0E9471
:100E50004B0E88A398A18CA1981719F410924A01FF
:100E600003C085E080934A010E942B1A8F8F8F8DDB
:100E7000833439F481E00E94F91683E080934A01BB
:100E80006AC08F8D8C3409F066C00E94120F82E018
:100E900080934A0160C081E00E94F9160E946C08AC
:100EA0000E944B0E8AA30E942B1A8F8F8F8D833442
:100EB00039F481E00E94F91684E080934A011DC054
:100EC0008F8D823531F40E94120F83E080934A01A6
:100ED00014C08F8D8C3431F40E94120F82E0809305
:100EE0004A010BC08AA1482F50E08CA1282F30E086
:100EF000CA01B9010E942E118E8F8E8D823059F554
:100F000085E080934A0127C081E00E94F9160E9483
:100F1000A10D86E080934A011EC081E00E94F9166F
:100F20000E94F30C0E949D0E89A312C089A18530F6
:100F300049F081E00E94F9160E9457100E949D0E10
:100F400089A306C081E00E94F91610924A011D8E05
:100F50008D8D882359F7A6960FB6F894DEBF0FBE85
:100F6000CDBFCF91DF910895DF93CF93CDB7DEB79B
:100F7000A3970FB6F894DEBF0FBECDBFCE010F967C
:100F800098A38F8FE0E6F0E0FAA3E9A3F0E1FBA3DA
:100F9000E9A1FAA1008089A19AA101969AA389A347
:100FA000EF8DF8A100828F8D98A1019698A38F8F65
:100FB0009BA191509BA3EBA1EE2351F7CE010F967D
:100FC0006EE00E94191982E061E00E94B619CE011C
:100FD0000F960A9665E00E94191982E066E00E9469
:100FE000B61980E090E0A8E4B3E48B879C87AD87D6
:100FF000BE876B857C858D859E8520E030E04AE745
:1010000055E40E941F02DC01CB018F839887A987DA
:10101000BA876F81788589859A8520E030E040E83D
:101020005FE30E94790388232CF481E090E09E83A3
:101030008D833FC06F81788589859A8520E03FEF59
:101040004FE757E40E94190318164CF56B857C8511
:101050008D859E8520E030E040E251E40E941F0231
:10106000DC01CB01BC01CD010E944900DC01CB01B8
:101070009E838D830FC080E991E09C838B838B815D
:101080009C810197F1F79C838B838D819E810197D1
:101090009E838D838D819E81009769F714C06F8137
:1010A000788589859A850E944900DC01CB019E8361
:1010B0008D838D819E819A83898389819A8101970D
:1010C000F1F79A838983A3960FB6F894DEBF0FBE1B
:1010D000CDBFCF91DF910895DF93CF93CDB7DEB72A
:1010E000A4970FB6F894DEBF0FBECDBFCE010F960A
:1010F00099A388A3E0E7F0E0FBA3EAA3F1E1FCA356
:10110000EAA1FBA100808AA19BA101969BA38AA3CF
:10111000E8A1F9A1008288A199A1019699A388A3C9
:101120009CA191509CA3ECA1EE2351F7CE010F9608
:101130006FE00E94191982E061E00E94B619CE01A9
:101140000F960B9665E00E94191982E066E00E94F6
:10115000B61980E090E0A8E4B3E48B879C87AD8764
:10116000BE876B857C858D859E8520E030E04AE7D3
:1011700055E40E941F02DC01CB018F839887A98769
:10118000BA876F81788589859A8520E030E040E8CC
:101190005FE30E94790388232CF481E090E09E8332
:1011A0008D833FC06F81788589859A8520E03FEFE8
:1011B0004FE757E40E94190318164CF56B857C85A0
:1011C0008D859E8520E030E040E251E40E941F02C0
:1011D000DC01CB01BC01CD010E944900DC01CB0147
:1011E0009E838D830FC080E991E09C838B838B81EC
:1011F0009C810197F1F79C838B838D819E81019760
:101200009E838D838D819E81009769F714C06F81C5
:10121000788589859A850E944900DC01CB019E83EF
:101220008D838D819E819A83898389819A8101979B
:10123000F1F79A838983A4960FB6F894DEBF0FBEA8
:10124000CDBFCF91DF910895DF93CF93CDB7DEB7B8
:10125000A1970FB6F894DEBF0FBECDBFCE010F969B
:101260009E8F8D8FE1E8F0E0F8A3EF8FFEE0F9A309
:10127000EF8DF8A100808F8D98A1019698A38F8F94
:10128000ED8DFE8D00828D8D9E8D01969E8F8D8FB2
:1012900099A1915099A3E9A1EE2351F781E00E9411
:1012A000F91681E061E00E94B619CE010F966CE05C
:1012B0000E94191982E061E00E94B619CE010F96D2
:1012C000089665E00E94191982E066E00E94B6194E
:1012D00080E090E0A8E4B3E48B879C87AD87BE876D
:1012E0006B857C858D859E8520E030E04AE755E45E
:1012F0000E941F02DC01CB018F839887A987BA87E0
:101300006F81788589859A8520E030E040E85FE349
:101310000E94790388232CF481E090E09E838D83E2
:101320003FC06F81788589859A8520E03FEF4FE740
:1013300057E40E94190318164CF56B857C858D8542
:101340009E8520E030E040E251E40E941F02DC0173
:10135000CB01BC01CD010E944900DC01CB019E8381
:101360008D830FC080E991E09C838B838B819C816E
:101370000197F1F79C838B838D819E8101979E83DA
:101380008D838D819E81009769F714C06F81788568
:1013900089859A850E944900DC01CB019E838D835B
:1013A0008D819E819A83898389819A810197F1F742
:1013B0009A838983A1960FB6F894DEBF0FBECDBF86
:1013C000CF91DF910895DF93CF93CDB7DEB76F97BD
:1013D0000FB6F894DEBF0FBECDBFCE010F969C8F27
:1013E0008B8FEFE8F0E0FE8FED8FFCE0FF8FED8D4F
:1013F000FE8D00808D8D9E8D01969E8F8D8FEB8D45
:10140000FC8D00828B8D9C8D01969C8F8B8F9F8D88
:1014100091509F8FEF8DEE2351F7CE010F966CE028
:101420000E94191980E090E0A8E4B3E48B879C87C0
:10143000AD87BE876B857C858D859E8520E030E0FD
:101440004AE755E40E941F02DC01CB018F83988795
:10145000A987BA876F81788589859A8520E030E0F1
:1014600040E85FE30E94790388232CF481E090E058
:101470009E838D833FC06F81788589859A8520E022
:101480003FEF4FE757E40E94190318164CF56B85A0
:101490007C858D859E8520E030E040E251E40E940D
:1014A0001F02DC01CB01BC01CD010E944900DC011F
:1014B000CB019E838D830FC080E991E09C838B8359
:1014C0008B819C810197F1F79C838B838D819E8119
:1014D00001979E838D838D819E81009769F714C04B
:1014E0006F81788589859A850E944900DC01CB014E
:1014F0009E838D838D819E819A83898389819A8140
:101500000197F1F79A8389836F960FB6F894DEBF3F
:101510000FBECDBFCF91DF910895DF93CF93CDB7AD
:10152000DEB7E3970FB6F894DEBF0FBECDBFCE0196
:101530000F969EA38DA3EBE9F0E0F8A7EFA3FAE0E6
:10154000F9A7EFA1F8A500808FA198A5019698A70B
:101550008FA3EDA1FEA100828DA19EA101969EA365
:101560008DA399A5915099A7E9A5EE2351F7CE0136
:1015700049969BA78AA7E5EAF0E0FDA7ECA7F6E06D
:10158000FEA7ECA5FDA500808CA59DA501969DA7B5
:101590008CA7EAA5FBA500828AA59BA501969BA71F
:1015A0008AA79EA591509EA7EEA5EE2351F7CE01E6
:1015B0004F9698AB8FA7EBEAF0E0FAABE9ABF6E019
:1015C000FBABE9A9FAA9008089A99AA901969AAB6F
:1015D00089ABEFA5F8A900828FA598A9019698ABD1
:1015E0008FA79BA991509BABEBA9EE2351F7CE019E
:1015F0000F9669E00E94191982E061E00E94B61915
:10160000CE01499665E00E94191982E067E00E94C8
:10161000B619CE014F9665E00E94191983E060E08B
:101620000E943E1284E061E00E943E1280E090E061
:10163000A8E4B3E48B879C87AD87BE876B857C85E8
:101640008D859E8520E030E04AE755E40E941F0228
:10165000DC01CB018F839887A987BA876F81788552
:1016600089859A8520E030E040E85FE30E947903B5
:1016700088232CF481E090E09E838D833FC06F81AE
:10168000788589859A8520E03FEF4FE757E40E94EF
:10169000190318164CF56B857C858D859E8520E099
:1016A00030E040E251E40E941F02DC01CB01BC01AA
:1016B000CD010E944900DC01CB019E838D830FC0C8
:1016C00080E991E09C838B838B819C810197F1F76A
:1016D0009C838B838D819E8101979E838D838D81D9
:1016E0009E81009769F714C06F81788589859A85F6
:1016F0000E944900DC01CB019E838D838D819E81F8
:101700009A83898389819A810197F1F79A838983E2
:10171000E3960FB6F894DEBF0FBECDBFCF91DF9139
:101720000895DF93CF93CDB7DEB76F970FB6F894D8
:10173000DEBF0FBECDBFCE010F969C8F8B8FE1EB2E
:10174000F0E0FE8FED8FFCE0FF8FED8DFE8D0080D1
:101750008D8D9E8D01969E8F8D8FEB8DFC8D0082E1
:101760008B8D9C8D01969C8F8B8F9F8D91509F8F21
:10177000EF8DEE2351F7CE010F966AE00E94191902
:1017800080E090E0A8E4B3E48B879C87AD87BE87B8
:101790006B857C858D859E8520E030E04AE755E4A9
:1017A0000E941F02DC01CB018F839887A987BA872B
:1017B0006F81788589859A8520E030E040E85FE395
:1017C0000E94790388232CF481E090E09E838D832E
:1017D0003FC06F81788589859A8520E03FEF4FE78C
:1017E00057E40E94190318164CF56B857C858D858E
:1017F0009E8520E030E040E251E40E941F02DC01BF
:10180000CB01BC01CD010E944900DC01CB019E83CC
:101810008D830FC080E991E09C838B838B819C81B9
:101820000197F1F79C838B838D819E8101979E8325
:101830008D838D819E81009769F714C06F817885B3
:1018400089859A850E944900DC01CB019E838D83A6
:101850008D819E819A83898389819A810197F1F78D
:101860009A8389836F960FB6F894DEBF0FBECDBF03
:10187000CF91DF910895DF93CF93CDB7DEB7A397D4
:101880000FB6F894DEBF0FBECDBFCE010F9698A362
:101890008F8FEDEBF0E0FAA3E9A3F0E1FBA3E9A160
:1018A000FAA1008089A19AA101969AA389A3EF8D3C
:1018B000F8A100828F8D98A1019698A38F8F9BA18C
:1018C00091509BA3EBA1EE2351F7CE010F966EE052
:1018D0000E94191982E061E00E94B619CE010F96AC
:1018E0000A9665E00E94191982E066E00E94B61926
:1018F00080E090E0A8E4B3E48B879C87AD87BE8747
:101900006B857C858D859E8520E030E04AE755E437
:101910000E941F02DC01CB018F839887A987BA87B9
:101920006F81788589859A8520E030E040E85FE323
:101930000E94790388232CF481E090E09E838D83BC
:101940003FC06F81788589859A8520E03FEF4FE71A
:1019500057E40E94190318164CF56B857C858D851C
:101960009E8520E030E040E251E40E941F02DC014D
:10197000CB01BC01CD010E944900DC01CB019E835B
:101980008D830FC080E991E09C838B838B819C8148
:101990000197F1F79C838B838D819E8101979E83B4
:1019A0008D838D819E81009769F714C06F81788542
:1019B00089859A850E944900DC01CB019E838D8335
:1019C0008D819E819A83898389819A810197F1F71C
:1019D0009A838983A3960FB6F894DEBF0FBECDBF5E
:1019E000CF91DF910895DF93CF93CDB7DEB76D9799
:1019F0000FB6F894DEBF0FBECDBFCE010F969A8F03
:101A0000898FEDECF0E0FC8FEB8FFAE0FD8FEB8D32
:101A1000FC8D00808B8D9C8D01969C8F8B8FE98D2A
:101A2000FA8D0082898D9A8D01969A8F898F9D8D6E
:101A300091509D8FED8DEE2351F7CE010F9669E009
:101A40000E94191982E061E00E94B61980E090E0DE
:101A5000A8E4B3E48B879C87AD87BE876B857C85C4
:101A60008D859E8520E030E04AE755E40E941F0204
:101A7000DC01CB018F839887A987BA876F8178852E
:101A800089859A8520E030E040E85FE30E94790391
:101A900088232CF481E090E09E838D833FC06F818A
:101AA000788589859A8520E03FEF4FE757E40E94CB
:101AB000190318164CF56B857C858D859E8520E075
:101AC00030E040E251E40E941F02DC01CB01BC0186
:101AD000CD010E944900DC01CB019E838D830FC0A4
:101AE00080E991E09C838B838B819C810197F1F746
:101AF0009C838B838D819E8101979E838D838D81B5
:101B00009E81009769F714C06F81788589859A85D1
:101B10000E944900DC01CB019E838D838D819E81D3
:101B20009A83898389819A810197F1F79A838983BE
:101B30006D960FB6F894DEBF0FBECDBFCF91DF918B
:101B40000895DF93CF93CDB7DEB76E970FB6F894B5
:101B5000DEBF0FBECDBFCE010F969B8F8A8FE7ED04
:101B6000F0E0FD8FEC8FFBE0FE8FEC8DFD8D0080B3
:101B70008C8D9D8D01969D8F8C8FEA8DFB8D0082C3
:101B80008A8D9B8D01969B8F8A8F9E8D91509E8F03
:101B9000EE8DEE2351F7CE010F966AE00E941919DF
:101BA00080E090E0AAEFB4E48B879C87AD87BE8786
:101BB0006B857C858D859E8520E030E04AE755E485
:101BC0000E941F02DC01CB018F839887A987BA8707
:101BD0006F81788589859A8520E030E040E85FE371
:101BE0000E94790388232CF481E090E09E838D830A
:101BF0003FC06F81788589859A8520E03FEF4FE768
:101C000057E40E94190318164CF56B857C858D8569
:101C10009E8520E030E040E251E40E941F02DC019A
:101C2000CB01BC01CD010E944900DC01CB019E83A8
:101C30008D830FC080E991E09C838B838B819C8195
:101C40000197F1F79C838B838D819E8101979E8301
:101C50008D838D819E81009769F714C06F8178858F
:101C600089859A850E944900DC01CB019E838D8382
:101C70008D819E819A83898389819A810197F1F769
:101C80009A8389836E960FB6F894DEBF0FBECDBFE0
:101C9000CF91DF910895DF93CF9300D000D000D093
:101CA000CDB7DEB7198288EE8093500110924B01B8
:101CB00036C088E18093FB0004C00E942B1A8093F9
:101CC000FB008091FB008831C1F380914B01282FEC
:101CD00030E04091FB00CE010296FC01E20FF31FC1
:101CE00040839091FB0080915001989F802D11249A
:101CF00080935101809150019AE0692F0E94D71A78
:101D0000809350018AE20E940918909151018981C3
:101D1000890F898380914B018F5F80934B01809164
:101D20004B01853030F2898126960FB6F894DEBFDC
:101D30000FBECDBFCF91DF910895DF93CF93CDB785
:101D4000DEB760970FB6F894DEBF0FBECDBF198225
:101D5000CE0107969D878C87E4E3F1E0FF87EE874D
:101D6000F5E0F88BEE85FF8500808E859F850196D6
:101D70009F878E87EC85FD8500828C859D850196E9
:101D80009D878C8798899150988BE889EE2351F72D
:101D900010924B0139C088E18093FB0004C00E947F
:101DA0002B1A8093FB008091FB008831C1F3809156
:101DB0004B01282F30E04091FB00CE010296FC0140
:101DC000E20FF31F408380914B01282F30E0CE01BA
:101DD0000296FC01E20FF31F408180914B01282FF6
:101DE00030E0CE010796FC01E20FF31F8081481717
:101DF00019F489818F5F89838AE20E940918809192
:101E00004B018F5F80934B0180914B01853018F21D
:101E1000898160960FB6F894DEBF0FBECDBFCF911B
:101E2000DF910895DF93CF93CDB7DEB72F970FB62D
:101E3000F894DEBF0FBECDBF81E08F8783C083E003
:101E400061E00E943E1284E060E00E943E1280E069
:101E500090E8ABE3B5E48B879C87AD87BE876B8545
:101E60007C858D859E8520E030E04AE755E40E9420
:101E70001F02DC01CB018F839887A987BA876F8106
:101E8000788589859A8520E030E040E85FE30E940C
:101E9000790388232CF481E090E09E838D833FC0FA
:101EA0006F81788589859A8520E03FEF4FE757E479
:101EB0000E94190318164CF56B857C858D859E85CF
:101EC00020E030E040E251E40E941F02DC01CB013F
:101ED000BC01CD010E944900DC01CB019E838D83B2
:101EE0000FC080E991E09C838B838B819C8101975B
:101EF000F1F79C838B838D819E8101979E838D83D7
:101F00008D819E81009769F714C06F8178858985DE
:101F10009A850E944900DC01CB019E838D838D81CF
:101F20009E819A83898389819A810197F1F79A83A7
:101F3000898383E060E00E943E1284E060E00E94BA
:101F40003E121F868F85882309F079CF2F960FB612
:101F5000F894DEBF0FBECDBFCF91DF910895DF9320
:101F6000CF93CDB7DEB761970FB6F894DEBF0FBE43
:101F7000CDBF888B698B81E08F8713C09889898951
:101F8000981711F41F860DC00E94B4070E944B0ED3
:101F9000888B81E00E94F9160E9424090E944B0E52
:101FA000898B8F85882351F781E00E94F9160E9462
:101FB000E30980E090E0AAEFB4E48B879C87AD87CB
:101FC000BE876B857C858D859E8520E030E04AE765
:101FD00055E40E941F02DC01CB018F839887A987FB
:101FE000BA876F81788589859A8520E030E040E85E
:101FF0005FE30E94790388232CF481E090E09E83C4
:102000008D833FC06F81788589859A8520E03FEF79
:102010004FE757E40E94190318164CF56B857C8531
:102020008D859E8520E030E040E251E40E941F0251
:10203000DC01CB01BC01CD010E944900DC01CB01D8
:102040009E838D830FC080E991E09C838B838B817D
:102050009C810197F1F79C838B838D819E810197F1
:102060009E838D838D819E81009769F714C06F8157
:10207000788589859A850E944900DC01CB019E8381
:102080008D838D819E819A83898389819A8101972D
:10209000F1F79A83898381E00E94F91661960FB661
:1020A000F894DEBF0FBECDBFCF91DF910895DF93CF
:1020B000CF93CDB7DEB7A9970FB6F894DEBF0FBEAA
:1020C000CDBFCE010F9699A388A3E2EEF0E0FBA36B
:1020D000EAA3FBE0FCA3EAA1FBA100808AA19BA1EB
:1020E00001969BA38AA3E8A1F9A1008288A199A1E6
:1020F000019699A388A39CA191509CA3ECA1EE23E7
:1021000051F7CE014A969EA38DA3EDEEF0E0F8A71D
:10211000EFA3F6E0F9A7EFA1F8A500808FA198A59D
:10212000019698A78FA3EDA1FEA100828DA19EA18B
:1021300001969EA38DA399A5915099A7E9A5EE2399
:1021400051F7CE010F966AE00E94191982E061E012
:102150000E94B619CE014A9665E00E94191982E0E4
:1021600066E00E94B61980E090E0A8E4B3E48B87B3
:102170009C87AD87BE876B857C858D859E8520E09D
:1021800030E04AE755E40E941F02DC01CB018F8357
:102190009887A987BA876F81788589859A8520E095
:1021A00030E040E85FE30E94790388232CF481E06B
:1021B00090E09E838D833FC06F81788589859A8565
:1021C00020E03FEF4FE757E40E94190318164CF543
:1021D0006B857C858D859E8520E030E040E251E472
:1021E0000E941F02DC01CB01BC01CD010E9449000D
:1021F000DC01CB019E838D830FC080E991E09C833D
:102200008B838B819C810197F1F79C838B838D81DC
:102210009E8101979E838D838D819E81009769F7B2
:1022200014C06F81788589859A850E944900DC01F8
:10223000CB019E838D838D819E819A838983898141
:102240009A810197F1F79A838983A9960FB6F8943A
:10225000DEBF0FBECDBFCF91DF910895DF93CF9347
:1022600000D00F92CDB7DEB78A836B83198217C077
:102270009A818B81981761F081E00E94F9160E9483
:102280006C080E944B0E8A8389818F5F898307C007
:1022900084E0898381E00E94F9160E94E309898124
:1022A000823030F389810F900F900F90CF91DF91A2
:1022B0000895DF93CF930F92CDB7DEB70E942B1A0C
:1022C00089838981833419F481E00E94F9160F9083
:1022D000CF91DF910895DF93CF9300D000D000D04D
:1022E000CDB7DEB71982BDC08981882F90E0FC018F
:1022F000EC5EFE4F80818C83898187708B8389811E
:102300008695869586958A838C81282F30E03E833A
:102310002D838D819E818130910581F12D813E81BA
:102320002230310509F475C08D819E81009709F036
:1023300095C08A81882F90E0880F991FFC01E45096
:10234000FF4FA081B1818A81882F90E0880F991F6B
:10235000FC01E450FF4F0190F081E02D8081482F77
:102360008B81282F30E081E090E0022E02C0880FA0
:10237000991F0A94E2F7842B8C9370C08A81882F6E
:1023800090E0880F991FFC01E450FF4FA081B181BC
:102390008A81882F90E0880F991FFC01E450FF4F3D
:1023A0000190F081E02D8081482F8B81282F30E033
:1023B00081E090E002C0880F991F2A95E2F780958E
:1023C00084238C938A81882F90E00496880F991F2C
:1023D000FC01E450FF4FA081B1818A81882F90E0F9
:1023E0000496880F991FFC01E450FF4F0190F08183
:1023F000E02D8081482F8B81282F30E081E090E014
:10240000022E02C0880F991F0A94E2F7842B8C9346
:1024100025C08A81882F90E0880F991FFC01E45025
:10242000FF4FA081B1818A81882F90E0880F991F8A
:10243000FC01E450FF4F0190F081E02D8081482F96
:102440008B81282F30E081E090E0022E02C0880FBF
:10245000991F0A94E2F7809584238C9389818F5F7A
:1024600089838981803208F43FCF26960FB6F8948D
:10247000DEBF0FBECDBFCF91DF910895DF93CF9325
:1024800000D000D000D0CDB7DEB78B836C838B81BA
:1024900087708A838B8186958695869589838C81C2
:1024A000282F30E03E832D838D819E81009769F136
:1024B0002D813E812130310509F04EC08981882F60
:1024C00090E00496880F991FFC01E450FF4FA08113
:1024D000B1818981882F90E00496880F991FFC01B3
:1024E000E450FF4F0190F081E02D8081482F8A81D8
:1024F000282F30E081E090E0022E02C0880F991F63
:102500000A94E2F7842B8C9327C08981882F90E06E
:102510000496880F991FFC01E450FF4FA081B18100
:102520008981882F90E00496880F991FFC01E45060
:10253000FF4F0190F081E02D8081482F8A81282F64
:1025400030E081E090E0022E02C0880F991F0A94CB
:10255000E2F7809584238C9326960FB6F894DEBF1D
:102560000FBECDBFCF91DF910895DF93CF9300D001
:10257000CDB7DEB789836A838981882F90E004967E
:10258000880F991FFC01E450FF4F0190F081E02D6E
:102590008A8180830F900F90CF91DF910895DF9310
:1025A000CF9300D000D0CDB7DEB78C838C818770FD
:1025B0008B838C8186958695869589838981882FE2
:1025C00090E00896880F991FFC01E450FF4F01909E
:1025D000F081E02D8081282F30E08B81882F90E0E2
:1025E000A90102C0559547958A95E2F7CA01817005
:1025F0008A838A810F900F900F900F90CF91DF9177
:102600000895DF93CF9300D0CDB7DEB78A838A8158
:10261000882F90E00896880F991FFC01E450FF4F27
:102620000190F081E02D8081898389810F900F9046
:10263000CF91DF9108950F931F93DF93CF93CDB781
:10264000DEB7C256D0400FB6F894DEBF0FBECDBF86
:10265000FE01E15AFF4F80E090E0A0EFB1E48083FB
:102660009183A283B3838E01055A1F4FFE01E15A65
:10267000FF4F608171818281938120E030E04AE7E1
:1026800055E40E941F02DC01CB01F8018083918395
:10269000A283B383FE01E55AFF4F6081718182817D
:1026A000938120E030E040E85FE30E9479038823D3
:1026B00044F4FE01E75AFF4F81E090E0918380836C
:1026C00064C0FE01E55AFF4F608171818281938170
:1026D00020E03FEF4FE757E40E94190318160CF073
:1026E00043C0FE01E15AFF4F608171818281938175
:1026F00020E030E040E251E40E941F02DC01CB0107
:102700008E01075A1F4FBC01CD010E944900DC0118
:10271000CB01F801918380831FC0FE01E95AFF4F6E
:1027200080E991E091838083FE01E95AFF4F808127
:1027300091810197F1F7FE01E95AFF4F9183808360
:10274000DE01A75ABF4FFE01E75AFF4F80819181FA
:10275000019711969C938E93FE01E75AFF4F80815B
:1027600091810097D1F627C08E01075A1F4FFE01B5
:10277000E55AFF4F60817181828193810E944900F7
:10278000DC01CB01F80191838083DE01AB5ABF4F9E
:10279000FE01E75AFF4F808191818D939C93FE014A
:1027A000EB5AFF4F808191810197F1F7FE01EB5ABF
:1027B000FF4F9183808388E30E94F916FE01EF5A50
:1027C000FF4F80E090E0A0E7B1E480839183A28393
:1027D000B3838E01035B1F4FFE01EF5AFF4F6081F1
:1027E00071818281938120E030E04AE755E40E94C4
:1027F0001F02DC01CB01F80180839183A283B383A4
:10280000FE01E35BFF4F608171818281938120E053
:1028100030E040E85FE30E947903882344F4FE013E
:10282000E55BFF4F81E090E09183808364C0FE010F
:10283000E35BFF4F608171818281938120E03FEFF4
:102840004FE757E40E94190318160CF043C0FE012D
:10285000EF5AFF4F608171818281938120E030E0E7
:1028600040E251E40E941F02DC01CB018E01055BB6
:102870001F4FBC01CD010E944900DC01CB01F801D2
:10288000918380831FC0FE01E75BFF4F80E991E0E9
:1028900091838083FE01E75BFF4F808191810197E7
:1028A000F1F7FE01E75BFF4F91838083DE01A55BBB
:1028B000BF4FFE01E55BFF4F80819181019711962B
:1028C0009C938E93FE01E55BFF4F80819181009781
:1028D000D1F627C08E01055B1F4FFE01E35BFF4F62
:1028E00060817181828193810E944900DC01CB016A
:1028F000F80191838083DE01A95BBF4FFE01E55B98
:10290000FF4F808191818D939C93FE01E95BFF4F86
:10291000808191810197F1F7FE01E95BFF4F91837F
:10292000808382E00E94F916FE01ED5BFF4F80E09C
:1029300090E0A0E8BFE380839183A283B3838E01FC
:10294000015C1F4FFE01ED5BFF4F60817181828151
:10295000938120E030E04AE755E40E941F02DC0149
:10296000CB01F80180839183A283B383FE01FF969C
:10297000608171818281938120E030E040E85FE3F3
:102980000E94790388232CF481E090E09EAF8DAF04
:1029900046C0FE01FF96608171818281938120E0B3
:1029A0003FEF4FE757E40E941903181664F5FE0144
:1029B000ED5BFF4F608171818281938120E030E087
:1029C00040E251E40E941F02DC01CB01BC01CD01B9
:1029D0000E944900DC01CB019EAF8DAF0FC080E9A2
:1029E00091E09CAF8BAF8BAD9CAD0197F1F79CAFA5
:1029F0008BAF8DAD9EAD01979EAF8DAF8DAD9EAD72
:102A0000009769F716C0FE01FF966081718182818F
:102A100093810E944900DC01CB019EAF8DAF8DAD4B
:102A20009EAD9AAF89AF89AD9AAD0197F1F79AAF94
:102A300089AF8CE00E94F91680E090E0A0E8BFE347
:102A40008DAB9EABAFABB8AF6DA97EA98FA998AD8A
:102A500020E030E04AE755E40E941F02DC01CB0190
:102A600089AB9AABABABBCAB69A97AA98BA99CA982
:102A700020E030E040E85FE30E94790388232CF4F3
:102A800081E090E098AB8FA73FC069A97AA98BA994
:102A90009CA920E03FEF4FE757E40E941903181666
:102AA0004CF56DA97EA98FA998AD20E030E040E2F9
:102AB00051E40E941F02DC01CB01BC01CD010E9448
:102AC0004900DC01CB0198AB8FA70FC080E991E0F2
:102AD0009EA78DA78DA59EA50197F1F79EA78DA70F
:102AE0008FA598A9019798AB8FA78FA598A9009754
:102AF00069F714C069A97AA98BA99CA90E94490009
:102B0000DC01CB0198AB8FA78FA598A99CA78BA7B9
:102B10008BA59CA50197F1F79CA78BA781E00E944C
:102B2000F91680E090E0A0E7B1E48FA398A7A9A7E9
:102B3000BAA76FA178A589A59AA520E030E04AE759
:102B400055E40E941F02DC01CB018BA39CA3ADA323
:102B5000BEA36BA17CA18DA19EA120E030E040E846
:102B60005FE30E94790388232CF481E090E09AA32C
:102B700089A33FC06BA17CA18DA19EA120E03FEF66
:102B80004FE757E40E94190318164CF56FA178A57A
:102B900089A59AA520E030E040E251E40E941F029E
:102BA000DC01CB01BC01CD010E944900DC01CB015D
:102BB0009AA389A30FC080E991E098A38F8F8F8D8E
:102BC00098A10197F1F798A38F8F89A19AA10197F6
:102BD0009AA389A389A19AA1009769F714C06BA150
:102BE0007CA18DA19EA10E944900DC01CB019AA38A
:102BF00089A389A19AA19E8F8D8F8D8D9E8D01971E
:102C0000F1F79E8F8D8F86E00E94F91680E090E0AC
:102C1000A0E0B0E4898F9A8FAB8FBC8F698D7A8DDD
:102C20008B8D9C8D20E030E04AE755E40E941F0226
:102C3000DC01CB018D8B9E8BAF8BB88F6D897E892C
:102C40008F89988D20E030E040E85FE30E947903AF
:102C500088232CF481E090E09C8B8B8B3FC06D89A6
:102C60007E898F89988D20E03FEF4FE757E40E94DF
:102C7000190318164CF5698D7A8D8B8D9C8D20E08B
:102C800030E040E251E40E941F02DC01CB01BC01B4
:102C9000CD010E944900DC01CB019C8B8B8B0FC0C6
:102CA00080E991E09A8B898B89899A890197F1F75C
:102CB0009A8B898B8B899C8901979C8B8B8B8B89B9
:102CC0009C89009769F714C06D897E898F89988DDA
:102CD0000E944900DC01CB019C8B8B8B8B899C89EA
:102CE000988B8F878F8598890197F1F7988B8F87BD
:102CF00080E80E94F91680E090E0A0E0B0E48B87C5
:102D00009C87AD87BE876B857C858D859E8520E001
:102D100030E04AE755E40E941F02DC01CB018F83BB
:102D20009887A987BA876F81788589859A8520E0F9
:102D300030E040E85FE30E94790388232CF481E0CF
:102D400090E09E838D833FC06F81788589859A85C9
:102D500020E03FEF4FE757E40E94190318164CF5A7
:102D60006B857C858D859E8520E030E040E251E4D6
:102D70000E941F02DC01CB01BC01CD010E94490071
:102D8000DC01CB019E838D830FC080E991E09C83A1
:102D90008B838B819C810197F1F79C838B838D8141
:102DA0009E8101979E838D838D819E81009769F717
:102DB00014C06F81788589859A850E944900DC015D
:102DC000CB019E838D838D819E819A8389838981A6
:102DD0009A810197F1F79A838983CE59DF4F0FB615
:102DE000F894DEBF0FBECDBFCF91DF911F910F9141
:102DF0000895DF93CF93CDB7DEB76D970FB6F894F4
:102E0000DEBF0FBECDBF8D8F80E060E00E943E121E
:102E100081E060E00E943E1282E061E00E943E128A
:102E200081E06D8D0E94B51282E060E00E943E124A
:102E300080E090E0A0EAB0E4898F9A8FAB8FBC8FDE
:102E4000698D7A8D8B8D9C8D20E030E04AE755E4CA
:102E50000E941F02DC01CB018D8B9E8BAF8BB88F44
:102E60006D897E898F89988D20E030E040E85FE3AE
:102E70000E94790388232CF481E090E09C8B8B8B5B
:102E80003FC06D897E898F89988D20E03FEF4FE7A5
:102E900057E40E94190318164CF5698D7A8D8B8DB5
:102EA0009C8D20E030E040E251E40E941F02DC01F2
:102EB000CB01BC01CD010E944900DC01CB019C8B00
:102EC0008B8B0FC080E991E09A8B898B89899A89D5
:102ED0000197F1F79A8B898B8B899C8901979C8B41
:102EE0008B8B8B899C89009769F714C06D897E89CB
:102EF0008F89988D0E944900DC01CB019C8B8B8BC4
:102F00008B899C89988B8F878F8598890197F1F79A
:102F1000988B8F8782E061E00E943E1280E090E013
:102F2000A0E2B1E48B879C87AD87BE876B857C85EB
:102F30008D859E8520E030E04AE755E40E941F021F
:102F4000DC01CB018F839887A987BA876F81788549
:102F500089859A8520E030E040E85FE30E947903AC
:102F600088232CF481E090E09E838D833FC06F81A5
:102F7000788589859A8520E03FEF4FE757E40E94E6
:102F8000190318164CF56B857C858D859E8520E090
:102F900030E040E251E40E941F02DC01CB01BC01A1
:102FA000CD010E944900DC01CB019E838D830FC0BF
:102FB00080E991E09C838B838B819C810197F1F761
:102FC0009C838B838D819E8101979E838D838D81D0
:102FD0009E81009769F714C06F81788589859A85ED
:102FE0000E944900DC01CB019E838D838D819E81EF
:102FF0009A83898389819A810197F1F79A838983DA
:103000006D960FB6F894DEBF0FBECDBFCF91DF91A6
:103010000895DF93CF93CDB7DEB76D970FB6F894D1
:10302000DEBF0FBECDBF8D8F80E061E00E943E12FB
:1030300081E060E00E943E1282E061E00E943E1268
:1030400081E06D8D0E94B51282E060E00E943E1228
:1030500080E090E0A0EAB0E4898F9A8FAB8FBC8FBC
:10306000698D7A8D8B8D9C8D20E030E04AE755E4A8
:103070000E941F02DC01CB018D8B9E8BAF8BB88F22
:103080006D897E898F89988D20E030E040E85FE38C
:103090000E94790388232CF481E090E09C8B8B8B39
:1030A0003FC06D897E898F89988D20E03FEF4FE783
:1030B00057E40E94190318164CF5698D7A8D8B8D93
:1030C0009C8D20E030E040E251E40E941F02DC01D0
:1030D000CB01BC01CD010E944900DC01CB019C8BDE
:1030E0008B8B0FC080E991E09A8B898B89899A89B3
:1030F0000197F1F79A8B898B8B899C8901979C8B1F
:103100008B8B8B899C89009769F714C06D897E89A8
:103110008F89988D0E944900DC01CB019C8B8B8BA1
:103120008B899C89988B8F878F8598890197F1F778
:10313000988B8F8782E061E00E943E1280E090E0F1
:10314000A0E2B1E48B879C87AD87BE876B857C85C9
:103150008D859E8520E030E04AE755E40E941F02FD
:10316000DC01CB018F839887A987BA876F81788527
:1031700089859A8520E030E040E85FE30E9479038A
:1031800088232CF481E090E09E838D833FC06F8183
:10319000788589859A8520E03FEF4FE757E40E94C4
:1031A000190318164CF56B857C858D859E8520E06E
:1031B00030E040E251E40E941F02DC01CB01BC017F
:1031C000CD010E944900DC01CB019E838D830FC09D
:1031D00080E991E09C838B838B819C810197F1F73F
:1031E0009C838B838D819E8101979E838D838D81AE
:1031F0009E81009769F714C06F81788589859A85CB
:103200000E944900DC01CB019E838D838D819E81CC
:103210009A83898389819A810197F1F79A838983B7
:103220006D960FB6F894DEBF0FBECDBFCF91DF9184
:103230000895DF93CF93CDB7DEB762970FB6F894BA
:10324000DEBF0FBECDBF998B888B6A8B1F8680C077
:103250008F85282F30E088899989FC01E20FF31FC0
:1032600080810E94091880E090E0A0E0B0E48B87A4
:103270009C87AD87BE876B857C858D859E8520E08C
:1032800030E04AE755E40E941F02DC01CB018F8346
:103290009887A987BA876F81788589859A8520E084
:1032A00030E040E85FE30E94790388232CF481E05A
:1032B00090E09E838D833FC06F81788589859A8554
:1032C00020E03FEF4FE757E40E94190318164CF532
:1032D0006B857C858D859E8520E030E040E251E461
:1032E0000E941F02DC01CB01BC01CD010E944900FC
:1032F000DC01CB019E838D830FC080E991E09C832C
:103300008B838B819C810197F1F79C838B838D81CB
:103310009E8101979E838D838D819E81009769F7A1
:1033200014C06F81788589859A850E944900DC01E7
:10333000CB019E838D838D819E819A838983898130
:103340009A810197F1F79A8389838F858F5F8F87A1
:103350009F858A89981708F47BCF62960FB6F894F8
:10336000DEBF0FBECDBFCF91DF910895DF93CF9326
:1033700000D000D0CDB7DEB789836A838A818823E5
:10338000E1F08A818131C8F48981282F30E03C83C3
:103390002B838B819C818130910531F02B813C8185
:1033A0002230310531F009C08A8181580E94F91616
:1033B00004C08A8181540E94F9160F900F900F90DB
:1033C0000F90CF91DF910895DF93CF9300D000D07D
:1033D0000F92CDB7DEB79C838B836D838D81883050
:1033E00020F58D81882F90E0880F991F880F991FF5
:1033F000880F991F80648A838A810E94F916198236
:1034000011C08981282F30E08B819C81FC01E20F63
:10341000F31F8081882F90E068E00E94191989814C
:103420008F5F89838981883060F382E00E94F9167A
:103430000F900F900F900F900F90CF91DF91089504
:10344000DF93CF93CDB7DEB782E06FEF0E94B51266
:10345000CF91DF910895DF93CF93CDB7DEB7A197DA
:103460000FB6F894DEBF0FBECDBF88E18C83CE01CE
:1034700005969E8F8D8FE9E3F1E0F8A3EF8FF0E1E1
:10348000F9A3EF8DF8A100808F8D98A1019698A3E4
:103490008F8FED8DFE8D00828D8D9E8D01969E8F7E
:1034A0008D8F99A1915099A3E9A1EE2351F780E165
:1034B0008D8B81E18E8B82E18F8B83E1888F84E11C
:1034C000898F85E18A8F86E18B8F87E18C8F1A82C5
:1034D00053C08A81282F30E0CE014996FC01E20FCB
:1034E000F31F808160E00E943E121B8233C08B81FB
:1034F000282F30E0CE014596FC01E20FF31F8081BA
:103500000E94CF1289838981882309F58A81282F17
:1035100030E08B81482F50E0220F331F220F331FE2
:10352000CE010196820F931F840F951FFC013496E4
:1035300080818C838B81282F30E0CE014596FC0161
:10354000E20FF31F80810E94CF12882399F38B81B1
:103550008F5F8B838B81843050F28A81282F30E0FB
:10356000CE014996FC01E20FF31F808161E00E94C9
:103570003E128A818F5F8A838A81843008F4A9CFC2
:103580008C81A1960FB6F894DEBF0FBECDBFCF9150
:10359000DF910895DF93CF93CDB7DEB70E946B1113
:1035A0000E94201A0E941B130E94A305FDCF991BA5
:1035B00079E004C0991F961708F0961B881F7A952A
:1035C000C9F7809508952F923F924F925F926F9224
:1035D0007F928F929F92AF92BF92CF92DF92EF92A3
:1035E000FF920F931F93CF93DF93CDB7DEB7CA1B24
:1035F000DB0B0FB6F894DEBF0FBECDBF09942A884F
:10360000398848885F846E847D848C849B84AA84F6
:10361000B984C884DF80EE80FD800C811B81AA8183
:10362000B981CE0FD11D0FB6F894DEBF0FBECDBF4E
:08363000ED010895F894FFCFAD
:10363800456E746572204E657720506173733A0049
:10364800456E74657220596F757220506173733AB4
:1036580000436F6E6669726D20506173733A00574C
:10366800656C636F6D65205E2D5E004F70656E2022
:103678005361666500436C6F7365005265736574CA
:10368800005361666520436C6F73656400456E7412
:103698006572204F6C6420506173733A0041646D09
:1036A800696E202D5F2D00486172616D79202D5F54
:1036B8002D0043616C6C2041646D696E005061732C
:1036C800733A000000000000000000183A003700BC
:1036D800340031003B003800350032003900360034
:1036E8003300300000000000000202020000000069
:1036F80000000000010101010000000002020202B6
:103708000202020232303232453734314338353220
:0A371800303936335230314C450091
:00000001FF
