:100000000C942A000C9447000C9447000C94470071
:100010000C9447000C9447000C9447000C94470044
:100020000C9447000C9447000C9447000C94470034
:100030000C9447000C9447000C9447000C94470024
:100040000C945B020C9447000C9447000C944700FE
:100050000C94470011241FBECFE5D8E0DEBFCDBF12
:1000600010E0A0E6B0E0E6E0F7E002C005900D92F7
:10007000A839B107D9F710E0A8E9B0E001C01D9296
:10008000AC39B107E1F70E9490020C9481030C9403
:100090000000DF93CF9300D000D000D0CDB7DEB703
:1000A0001982BDC08981882F90E0FC01E858FF4F7C
:1000B00080818C83898187708B83898186958695E1
:1000C00086958A838C81282F30E03E832D838D8115
:1000D0009E818130910581F12D813E812230310553
:1000E00009F475C08D819E81009709F095C08A81C1
:1000F000882F90E0880F991FFC01E05AFF4FA081E4
:10010000B1818A81882F90E0880F991FFC01E05A05
:10011000FF4F0190F081E02D8081482F8B81282FA7
:1001200030E081E090E0022E02C0880F991F0A940F
:10013000E2F7842B8C9370C08A81882F90E0880F1F
:10014000991FFC01E05AFF4FA081B1818A81882F5D
:1001500090E0880F991FFC01E05AFF4F0190F08159
:10016000E02D8081482F8B81282F30E081E090E0C6
:1001700002C0880F991F2A95E2F7809584238C93FB
:100180008A81882F90E00496880F991FFC01E05A1D
:10019000FF4FA081B1818A81882F90E00496880F5B
:1001A000991FFC01E05AFF4F0190F081E02D808102
:1001B000482F8B81282F30E081E090E0022E02C092
:1001C000880F991F0A94E2F7842B8C9325C08A81AB
:1001D000882F90E0880F991FFC01E05AFF4FA08103
:1001E000B1818A81882F90E0880F991FFC01E05A25
:1001F000FF4F0190F081E02D8081482F8B81282FC7
:1002000030E081E090E0022E02C0880F991F0A942E
:10021000E2F7809584238C9389818F5F898389811C
:10022000803208F43FCF26960FB6F894DEBF0FBE9B
:10023000CDBFCF91DF910895DF93CF9300D000D051
:1002400000D0CDB7DEB78B836C838B8187708A83B8
:100250008B8186958695869589838C81282F30E0C1
:100260003E832D838D819E81009769F12D813E8192
:100270002130310509F04EC08981882F90E0049625
:10028000880F991FFC01E05AFF4FA081B18189813D
:10029000882F90E00496880F991FFC01E05AFF4FC9
:1002A0000190F081E02D8081482F8A81282F30E055
:1002B00081E090E0022E02C0880F991F0A94E2F7B5
:1002C000842B8C9327C08981882F90E00496880F17
:1002D000991FFC01E05AFF4FA081B1818981882FCD
:1002E00090E00496880F991FFC01E05AFF4F01909F
:1002F000F081E02D8081482F8A81282F30E081E035
:1003000090E0022E02C0880F991F0A94E2F78095B0
:1003100084238C9326960FB6F894DEBF0FBECDBF14
:10032000CF91DF910895DF93CF9300D0CDB7DEB7A3
:1003300089836A838981882F90E00496880F991FAA
:10034000FC01E05AFF4F0190F081E02D8A8180830B
:100350000F900F90CF91DF910895DF93CF9300D04E
:1003600000D0CDB7DEB78C838C8187708B838C8176
:1003700086958695869589838981882F90E0089651
:10038000880F991FFC01E05AFF4F0190F081E02D8A
:100390008081282F30E08B81882F90E0A90102C056
:1003A000559547958A95E2F7CA0181708A838A81BB
:1003B0000F900F900F900F90CF91DF910895DF93E2
:1003C000CF9300D0CDB7DEB78A838A81882F90E0A3
:1003D0000896880F991FFC01E05AFF4F0190F081A9
:1003E000E02D8081898389810F900F90CF91DF91DB
:1003F0000895DF93CF93CDB7DEB7A7E2B0E0E7E291
:10040000F0E0808180648C93A7E2B0E0E7E2F0E066
:1004100080818F778C93A6E2B0E0E6E2F0E0808105
:1004200081608C93A6E2B0E0E6E2F0E08081826039
:100430008C93A6E2B0E0E6E2F0E0808184608C93E9
:10044000A6E2B0E0E6E2F0E0808180688C93A6E26C
:10045000B0E0E6E2F0E0808188608C93AFE5B0E048
:10046000EFE5F0E080819181806811969C938E93F6
:10047000A7E2B0E0E7E2F0E08081807F8C93CF914B
:10048000DF910895DF93CF93CDB7DEB7A6E2B0E05A
:10049000E6E2F0E0808180648C93CF91DF91089553
:1004A000DF93CF93CDB7DEB7E4E2F0E080819181B6
:1004B000CF91DF9108951F920F920FB60F921124E2
:1004C0002F933F934F935F936F937F938F939F935C
:1004D000AF93BF93EF93FF93DF93CF93CDB7DEB787
:1004E0000E945002CC01A0E0B0E08093980090936D
:1004F0009900A0939A00B0939B00CF91DF91FF9158
:10050000EF91BF91AF919F918F917F916F915F918B
:100510004F913F912F910F900FBE0F901F90189504
:10052000DF93CF9300D000D0CDB7DEB70E94490053
:100530000E94F9010E9442028091980090919900D6
:10054000A0919A00B0919B0028E833E140E050E090
:10055000BC01CD010E946203DC01CB01072E7AE0D1
:10056000B695A795979587957A95D1F7702D89833C
:100570009A83AB83BC8389819A81AB81BC810097CC
:10058000A105B10589F488E061E00E941C0189E0C1
:1005900061E00E941C018AE061E00E941C018BE086
:1005A00061E00E941C01C6CF89819A81AB81BC8128
:1005B00084309105A105B105D0F089819A81AB8184
:1005C000BC8188309105A105B10588F488E061E01F
:1005D0000E941C0189E061E00E941C018AE061E048
:1005E0000E941C018BE060E00E941C01A3CF898166
:1005F0009A81AB81BC8189309105A105B105D0F00C
:1006000089819A81AB81BC8180319105A105B105B9
:1006100088F488E061E00E941C0189E061E00E94AA
:100620001C018AE060E00E941C018BE060E00E94F7
:100630001C0180CF89819A81AB81BC818331910576
:10064000A105B105D0F089819A81AB81BC818F3140
:100650009105A105B10588F488E061E00E941C01C4
:1006600089E060E00E941C018AE060E00E941C01B9
:100670008BE060E00E941C015DCF89819A81AB8193
:10068000BC8189329105A105B10508F453CF898158
:100690009A81AB81BC8187349105A105B10508F031
:1006A00049CF88E060E00E941C0189E060E00E9480
:1006B0001C018AE060E00E941C018BE060E00E9467
:1006C0001C0138CF629FD001739FF001829FE00D23
:1006D000F11D649FE00DF11D929FF00D839FF00DC1
:1006E000749FF00D659FF00D9927729FB00DE11D6D
:1006F000F91F639FB00DE11DF91FBD01CF0111244A
:060700000895F894FFCFFC
:100706003A003700340031003B0038003500320033
:1007160039003600330030000202020202020202F1
:1007260000000000000000000002020202020202B5
:080736000202020202020202AB
:00000001FF
