:100000000C942A000C9447000C9447000C94470071
:100010000C9447000C9447000C9447000C94470044
:100020000C9447000C9447000C9447000C94470034
:100030000C9447000C94FB040C9447000C9447006C
:100040000C9447000C9447000C9447000C94470014
:100050000C94470011241FBECFE5D8E0DEBFCDBF12
:1000600010E0A0E6B0E0EAEAFAE002C005900D92E6
:10007000A43AB107D9F710E0A4EAB0E001C01D929C
:10008000A53AB107E1F70E9427050C9453050C949B
:100090000000DF93CF9300D0CDB7DEB79A8389837A
:1000A000E9E2F0E089818083AAE2B0E0EAE2F0E0F0
:1000B000808180618C93AAE2B0E0EAE2F0E0808186
:1000C00088608C93A0E4B0E0E0E4F0E080818F777A
:1000D0008C93A0E4B0E0E0E4F0E0808188608C9351
:1000E000AAE2B0E0EAE2F0E0808180688C93AFE5BC
:1000F000B0E0EFE5F0E080819181806811969C93FB
:100100008E930F900F90CF91DF910895DF93CF934F
:100110000F92CDB7DEB78983EBE2F0E08081882FC4
:1001200090E0807290700097B9F3ECE2F0E0898182
:1001300080830F90CF91DF910895DF93CF9300D00C
:1001400000D0CDB7DEB79B838A836C831982198276
:1001500032C08981282F30E08A819B81FC01E20F27
:10016000F31F8081803361F08981282F30E08A81FC
:100170009B81FC01E20FF31F80810E94860018C062
:100180008981282F30E08A819B81FC01E20FF31FD7
:100190008081803369F48981282F30E08A819B81B6
:1001A000FC01E20FF31F80810E94860089818C830D
:1001B00089818F5F898399818C81891750F60F908F
:1001C0000F900F900F90CF91DF910895DF93CF9311
:1001D000CDB7DEB7EBE2F0E080818823DCF7ECE21C
:1001E000F0E08081CF91DF910895DF93CF93CDB779
:1001F000DEB7ECE2F0E08081CF91DF910895DF93EC
:10020000CF930F92CDB7DEB78983A3E5B0E0E3E5E6
:10021000F0E090818981892B8C930F90CF91DF91B1
:100220000895DF93CF9300D00F92CDB7DEB78983C7
:100230008981282F30E03B832A838A819B8181300A
:10024000910521F12A813B81223031052CF48A81EC
:100250009B81009761F046C02A813B8122303105A5
:1002600021F18A819B818330910571F13BC0A3E527
:10027000B0E0E3E5F0E08081877F8C93A3E5B0E018
:10028000E3E5F0E080818F7B8C932CC0A3E5B0E0A8
:10029000E3E5F0E08081877F8C93A3E5B0E0E3E5C0
:1002A000F0E0808180648C931DC0A3E5B0E0E3E5BD
:1002B000F0E0808188608C93A3E5B0E0E3E5F0E0B6
:1002C00080818F7B8C930EC0A3E5B0E0E3E5F0E086
:1002D000808188608C93A3E5B0E0E3E5F0E0808165
:1002E00080648C930F900F900F90CF91DF910895C1
:1002F000DF93CF93CDB7DEB7E2E5F0E01082ECE517
:10030000F0E01082CF91DF910895DF93CF9300D07A
:100310000F92CDB7DEB789838981282F30E03B83E8
:100320002A838A819B8181309105E9F02A813B8172
:10033000223031052CF48A819B81009761F02AC01C
:100340002A813B8122303105B1F08A819B81833043
:100350009105C9F01FC0A9E5B0E0E9E5F0E08081B2
:1003600081608C9317C0A9E5B0E0E9E5F0E08081F9
:100370008E7F8C930FC0A9E5B0E0E9E5F0E08081C5
:1003800082608C9307C0A9E5B0E0E9E5F0E08081E8
:100390008D7F8C930F900F900F90CF91DF910895E8
:1003A000DF93CF9300D00F92CDB7DEB789838981D9
:1003B000282F30E03B832A838A819B8186309105F8
:1003C00059F02A813B812730310571F08A819B8168
:1003D0008530910589F017C0ABE5B0E0EBE5F0E0C2
:1003E000808180648C930FC0ABE5B0E0EBE5F0E07A
:1003F000808180688C9307C0ABE5B0E0EBE5F0E06E
:10040000808180628C930F900F900F90CF91DF913D
:100410000895DF93CF9300D00F92CDB7DEB78983D5
:100420008981282F30E03B832A838A819B81863013
:10043000910559F02A813B812730310571F08A817D
:100440009B818530910589F017C0ABE5B0E0EBE505
:10045000F0E080818F7B8C930FC0ABE5B0E0EBE5E3
:10046000F0E080818F778C9307C0ABE5B0E0EBE5DF
:10047000F0E080818F7D8C930F900F900F90CF9143
:10048000DF910895DF93CF93CDB7DEB72A970FB6EC
:10049000F894DEBF0FBECDBF89836A838981282F80
:1004A00030E03A87298789859A858630910569F0F9
:1004B00029853A852730310509F462C089859A85F6
:1004C0008530910509F4B7C0DDC08A81282F30E05E
:1004D00038872F838F8198858130910521F12F8175
:1004E0003885223031052CF48F819885009761F092
:1004F000C9C02F8138852230310521F18F8198853F
:100500008330910571F1BEC0A5E5B0E0E5E5F0E00E
:1005100080818E7F8C93A5E5B0E0E5E5F0E08081F9
:100520008D7F8C93AFC0A5E5B0E0E5E5F0E080817C
:1005300081608C93A5E5B0E0E5E5F0E080818D7FFA
:100540008C93A0C0A5E5B0E0E5E5F0E080818E7F6A
:100550008C93A5E5B0E0E5E5F0E0808182608C93C6
:1005600091C0A5E5B0E0E5E5F0E0808181608C9385
:10057000A5E5B0E0E5E5F0E0808182608C9382C083
:100580008A81282F30E03E832D838D819E818130AA
:10059000910521F12D813E81223031052CF48D8190
:1005A0009E81009761F06EC02D813E812230310521
:1005B00021F18D819E818330910571F163C0A5E5A4
:1005C000B0E0E5E5F0E080818B7F8C93A5E5B0E0BD
:1005D000E5E5F0E08081877F8C9354C0A5E5B0E02D
:1005E000E5E5F0E0808184608C93A5E5B0E0E5E589
:1005F000F0E08081877F8C9345C0A5E5B0E0E5E51C
:10060000F0E080818B7F8C93A5E5B0E0E5E5F0E03C
:10061000808188608C9336C0A5E5B0E0E5E5F0E028
:10062000808184608C93A5E5B0E0E5E5F0E0808111
:1006300088608C9327C08A81282F30E03C832B83ED
:100640008B819C818230910531F02B813C8123305C
:10065000310549F010C0A5E5B0E0E5E5F0E08081A6
:100660008F7B8C930FC0A5E5B0E0E5E5F0E08081DD
:1006700080648C9307C0A5E5B0E0E5E5F0E08081FB
:100680008F7B8C932A960FB6F894DEBF0FBECDBF3A
:10069000CF91DF910895DF93CF9300D000D000D0A9
:1006A000CDB7DEB71982BDC08981882F90E0FC01EB
:1006B000EC57FF4F80818C83898187708B83898180
:1006C0008695869586958A838C81282F30E03E8397
:1006D0002D838D819E818130910581F12D813E8117
:1006E0002230310509F475C08D819E81009709F093
:1006F00095C08A81882F90E0880F991FFC01E459EA
:10070000FF4FA081B1818A81882F90E0880F991FC7
:10071000FC01E459FF4F0190F081E02D8081482FCA
:100720008B81282F30E081E090E0022E02C0880FFC
:10073000991F0A94E2F7842B8C9370C08A81882FCA
:1007400090E0880F991FFC01E459FF4FA081B1810F
:100750008A81882F90E0880F991FFC01E459FF4F90
:100760000190F081E02D8081482F8B81282F30E08F
:1007700081E090E002C0880F991F2A95E2F78095EA
:1007800084238C938A81882F90E00496880F991F88
:10079000FC01E459FF4FA081B1818A81882F90E04C
:1007A0000496880F991FFC01E459FF4F0190F081D6
:1007B000E02D8081482F8B81282F30E081E090E070
:1007C000022E02C0880F991F0A94E2F7842B8C93A3
:1007D00025C08A81882F90E0880F991FFC01E45979
:1007E000FF4FA081B1818A81882F90E0880F991FE7
:1007F000FC01E459FF4F0190F081E02D8081482FEA
:100800008B81282F30E081E090E0022E02C0880F1B
:10081000991F0A94E2F7809584238C9389818F5FD6
:1008200089838981803208F43FCF26960FB6F894E9
:10083000DEBF0FBECDBFCF91DF910895DF93CF9381
:1008400000D000D000D0CDB7DEB78B836C838B8116
:1008500087708A838B8186958695869589838C811E
:10086000282F30E03E832D838D819E81009769F192
:100870002D813E812130310509F04EC08981882FBC
:1008800090E00496880F991FFC01E459FF4FA08166
:10089000B1818981882F90E00496880F991FFC010F
:1008A000E459FF4F0190F081E02D8081482F8A812B
:1008B000282F30E081E090E0022E02C0880F991FBF
:1008C0000A94E2F7842B8C9327C08981882F90E0CB
:1008D0000496880F991FFC01E459FF4FA081B18154
:1008E0008981882F90E00496880F991FFC01E459B4
:1008F000FF4F0190F081E02D8081482F8A81282FC1
:1009000030E081E090E0022E02C0880F991F0A9427
:10091000E2F7809584238C9326960FB6F894DEBF79
:100920000FBECDBFCF91DF910895DF93CF9300D05D
:10093000CDB7DEB789836A838981882F90E00496DA
:10094000880F991FFC01E459FF4F0190F081E02DC1
:100950008A8180830F900F90CF91DF910895DF936C
:10096000CF9300D000D0CDB7DEB78C838C81877059
:100970008B838C8186958695869589838981882F3E
:1009800090E00896880F991FFC01E459FF4F0190F1
:10099000F081E02D8081282F30E08B81882F90E03E
:1009A000A90102C0559547958A95E2F7CA01817061
:1009B0008A838A810F900F900F900F90CF91DF91D3
:1009C0000895DF93CF9300D0CDB7DEB78A838A81B5
:1009D000882F90E00896880F991FFC01E459FF4F7B
:1009E0000190F081E02D8081898389810F900F90A3
:1009F000CF91DF9108951F920F920FB60F9211249D
:100A00002F933F934F935F936F937F938F939F9316
:100A1000AF93BF93EF93FF93DF93CF93CDB7DEB741
:100A20000E94F5008093A400CF91DF91FF91EF9198
:100A3000BF91AF919F918F917F916F915F914F91F6
:100A40003F912F910F900FBE0F901F901895DF933D
:100A5000CF9300D0CDB7DEB70E944B0383E390E085
:100A60000E94490080E690E064E10E949D0080E0E1
:100A70000E94AF048A8381E00E94AF0489838A8147
:100A8000882339F48981813021F480E00E94860036
:100A9000EECF8A81813059F78981882341F781E03F
:0A0AA0000E948600E4CFF894FFCF17
:100AAA0053616D61612048616E7930003A00370008
:100ABA00340031003B00380035003200390036007E
:100ACA0033003000010102020202020200000000AB
:100ADA0000000000020202020202020200020000FA
:040AEA000202020200
:00000001FF
